:020000020000FC
:100000000C9402000FEF0DBF01E20EBF0FEF00BB1B
:1000100001B9002701BB02B908E366D075D08ED0C4
:1000200008E362D071D081D008E35ED06DD008E3E0
:100030005BD06AD008E058D067D001E055D064D0DA
:1000400006E052D061D00EE04FD05ED0882740EF5E
:1000500040930A013FEE11271430E1F330930B0176
:100060004FE26CD04A95E9F7409109014F704F304B
:1000700059F021E00027043039F0542F522341F089
:100080000395220F0C943B00330F13950C942C0016
:10009000133049F0033059F0402F440F400F410F07
:1000A0004F5C0C94620041E4400F0C9462001030ED
:1000B00029F0113031F043E20C9462004AE20C94D2
:1000C000620040E3803139F0803249F0042F13D0D0
:1000D0001BD08395BFCF00EC07D016D0F7CF01E03F
:1000E00003D012D08827F2CF01BB1FD0169A1DD0A3
:1000F00016981BD0089501BB179A17D0169A15D0E1
:10010000169813D0179808950F93002700BB01BBD2
:10011000159A0BD0169A09D00FB1169807FDF9CF92
:1001200015980FEF00BB0F9108958F939F939FE059
:100130008CE90197F1F79F918F910895F6DFF5DF34
:08014000F4DFF3DFF2DF0895A4
:00000001FF
