:020000020000FC
:040000000C948C00D0
:04000C000C94300020
:10005C000C9478008F939F938FB78F93DF93CF93EC
:10006C00C4E0D2E088818F5F8883813019F08832B8
:10007C0051F031C0C2E0D2E089919881C0E0D2E069
:10008C008993988328C0C2E0D2E089919881C0E01E
:10009C00D2E049915881841B950B882F99278A307F
:1000AC0008F403C093958A50FACF805D905D01E00F
:1000BC0073D082D0092F77D07FD0082F74D07CD00A
:1000CC00C2E0D2E0882789938883C4E0D2E08827F5
:1000DC008993888300C0CF91DF918F918FBF9F91BF
:1000EC008F9118958F939F938FB78F93DF93CF93A7
:1000FC00C2E0D2E089919881019698838A93CF913E
:10010C00DF918F918FBF9F918F911895F89480E21A
:10011C00809369008DB384608DBB882784BD83E098
:10012C0085BD81E080936E008FEF8DBF81E28EBF25
:10013C000FEF00BB01B9002701BB02B908E32CD0BB
:10014C003BD054D008E328D037D047D008E324D094
:10015C0033D008E321D030D008E01ED02DD001E000
:10016C001BD02AD006E018D027D00EE015D024D012
:10017C0078940C94C10088E08DB98AE4809398003F
:10018C0080E08093990081E08093910081E88093D6
:10019C009000789400C0FFCF01BB1FD0169A1DD0E1
:1001AC0016981BD0089501BB179A17D0169A15D024
:1001BC00169813D0179808950F93002700BB01BB16
:1001CC00159A0BD0169A09D00FB1169807FDF9CFD6
:1001DC0015980FEF00BB0F9108958F939F939FE09D
:1001EC008CE90197F1F79F918F910895F6DFF5DF78
:0801FC00F4DFF3DFF2DF0895E8
:00000001FF
