:020000020000FC
:040000000C949F00BD
:04000C000C94480008
:10008C000C945C008F939F938FB78F93DF93CF93D8
:10009C00C2E0D2E089919881019698838A93CF919E
:1000AC00DF918F918FBF9F918F911895F8948F93BB
:1000BC009F938FB78F93DF93CF93C0E0D2E089915A
:1000CC0098810196803F61F5903051F5E2E0F2E0C5
:1000DC0081919081882F9927823008F403C09395E1
:1000EC008250FACF892F99278A3008F403C0939550
:1000FC008A50FACF805D905D01E0B6D0C5D0092F53
:10010C00BAD0C2D0082FB7D0BFD0C0E0D2E0882779
:10011C0089938883C2E0D2E088278993888302C0C0
:10012C0098838A93CF91DF918F918FBF9F918F91FD
:10013C001895F89480E2809369008DB384608DBB30
:10014C0088E08DB98DE28093980080E080939900CF
:10015C0083E08093910081E88093900081E080930C
:10016C0071008FEF8DBF81E28EBF78940FEF00BBD3
:10017C0001B9002701BB02B908E376D085D09ED027
:10018C0008E372D081D091D008E36ED07DD008E323
:10019C006BD07AD008E068D077D001E065D074D00D
:1001AC0006E062D071D00EE05FD06ED00C94DE0011
:1001BC0080EF80930A013FEE11271430E1F3309366
:1001CC000B018FE08A95F1F7809109018F708F30C8
:1001DC0059F021E00027043039F0982F922341F098
:1001EC000395220F0C94F100330F13950C94E3003C
:1001FC00133049F0033059F0802F880F800F810F96
:10020C008F5C0C94180181E4800F0C941801103051
:10021C0029F0113031F083E20C9418018AE20C942D
:10022C00180180E3909109019F709F30D9F78133B9
:10023C0039F0823359F0833379F0843389F0BBCFB2
:10024C0080919800855F80939800B5CF809198003D
:10025C008B5080939800AFCF882780939800ABCFBA
:10026C008DE280939800A7CF01BB1FD0169A1DD0AA
:10027C0016981BD0089501BB179A17D0169A15D053
:10028C00169813D0179808950F93002700BB01BB45
:10029C00159A0BD0169A09D00FB1169807FDF9CF05
:1002AC0015980FEF00BB0F9108958F939F939FE0CC
:1002BC008CE90197F1F79F918F910895F6DFF5DFA7
:0802CC00F4DFF3DFF2DF089517
:00000001FF
