:020000020000FC
:040000000C946A00F2
:10008C000C9448008F939F938FB78F93DF93CF93EC
:10009C00C5E0D2E0899198810196863B61F493305A
:1000AC0051F40E9400020E946F02C5E0D2E0882742
:1000BC008993888302C098838A93CF91DF918F9123
:1000CC008FBF9F918F911895F89477278FEF8DBFE5
:1000DC0081E28EBF0FEF00BB01B9002701BB02B953
:1000EC0008E365D374D38DD308E361D370D380D385
:1000FC0008E35DD36CD308E35AD369D308E057D334
:10010C0066D301E054D363D306E051D360D30CE043
:10011C004ED35DD301E04BD35AD303E54FD357D322
:10012C0004E74CD354D301E649D351D302E746D369
:10013C004ED304E743D34BD30AE340D348D380EFE9
:10014C0080930A018FEF87B9E7D2533209F0FCCFC5
:10015C00C0E0D2E089E1899389938827899385E56A
:10016C00899382E0888388E08DB98CE38093980032
:10017C0080E08093990083E08093910081E88093E4
:10018C00900081E0809371007894C6D2513399F03D
:10019C005233B9F05333D9F05433F9F0553319F1D4
:1001AC00563339F1533459F1543459F15A3259F117
:1001BC00533259F1EACFC0E0D2E084E4239688832D
:1001CC00E4CFC0E0D2E086E423968883DECFC0E0A3
:1001DC00D2E085E523968883D8CFC0E0D2E08CE4CA
:1001EC0023968883D2CFC0E0D2E082E42396888322
:1001FC00CCCFC0E0D2E082E523968883C6CF0C94A6
:10020C0017010C942A010C943D0164E5C0E0D2E086
:10021C0084E423968883C0E0D2E0249681E088832E
:10022C00B4CFC0E0D2E0249688818395843038F432
:10023C0090919800965F909398008883A6CF90E554
:10024C009093980084E0F9CFC0E0D2E024968881A6
:10025C008A95823038F0909198009A50909398003B
:10026C00888393CF92E39093980081E0F9CFC0E01C
:10027C00D2E02396403019F0842F442702C04881E5
:10028C0088E4888382CF0F931F93CF93DF938827C3
:10029C008093900001E08BD29AD204E48FD297D253
:1002AC0009E68CD294D203E789D291D204E786D2A4
:1002BC008ED201E683D28BD20EE680D288D203E6B0
:1002CC007DD285D205E67AD282D20AE377D27FD26A
:1002DC00C9E0D2E0899198810196082F192F00244A
:1002EC001124442724E630E0080141E1221833248C
:1002FC00001C111C4A9559F0221C331C221A330A7B
:10030C0020F4220E331E8894F3CF0894F1CF502D95
:10031C00822D99278A3008F403C093958A50FACF1E
:10032C00805D905D505D052F49D251D2092F46D288
:10033C004ED2082F43D24BD20DE640D248D200EC1D
:10034C0036D245D204E43AD242D205E737D23FD274
:10035C0002E734D23CD201E631D239D204E72ED2B4
:10036C0036D209E62BD233D20FE628D230D20EE6A3
:10037C0025D22DD20AE322D22AD2C7E0D2E089912B
:10038C0098810196082F192F00241124442724E664
:10039C0030E0080141E122183324001C111C4A955D
:1003AC0059F0221C331C221A330A20F4220E331E5D
:1003BC008894F3CF0894F1CF502D822D99278A3051
:1003CC0008F403C093958A50FACF805D905D505D20
:1003DC00052FF4D1FCD1092FF1D1F9D1082FEED191
:1003EC00F6D103E7EBD1F3D1FFCFDF91CF911F9182
:1003FC000F9108950F931F932F933F934F93CF9388
:10040C00DF93C0E0D2E0099119912991399148818B
:10041C00643569F0353589F0343489F03C3489F031
:10042C00323589F0363489F0323489F011C02150DC
:10043C00203009F00DC00E944901240F09C0241B73
:10044C0007C0041B05C0040F03C0140F01C0141B0C
:10045C0048833A932A931A930A930233D8F41233AB
:10046C0008F52A3038F5C7E0D2E0899198810196D9
:10047C0098838A93C9E0D2E009911881040F171F61
:10048C0018830A93DF91CF914F913F912F911F9138
:10049C000F910895003818F402E30C94680200E000
:1004AC000C946802103818F412E30C94680210E0F3
:1004BC000C946802203818F42AE00C94680220E0AE
:1004CC000C946802C0E0D2E00993199329930E941E
:1004DC0003038F93CF93DF93882701E068D177D103
:1004EC0004E165D174D104E162D171D104E15FD131
:1004FC006ED104E15CD16BD100E560D168D10FE421
:10050C005DD165D104E153D162D104E150D15FD109
:10051C0004E14DD15CD104E14AD159D104E147D178
:10052C0056D104E44BD153D104E141D150D103E570
:10053C0045D14DD100E542D14AD104E43FD147D158
:10054C0000EC35D144D108E239D141D1C0E0D2E040
:10055C008991882F99278A3008F403C093958A5083
:10056C00FACF805D905D092F29D131D1082F26D18A
:10057C002ED10CE223D12BD18991882F99278A3047
:10058C0008F403C093958A50FACF805D905D092FD3
:10059C0015D11DD1082F12D11AD10CE20FD117D1C0
:1005AC008991882F99278A3008F403C093958A5033
:1005BC00FACF805D905D092F01D109D1082FFED0B3
:1005CC0006D109E2FBD003D104E1F1D000D189912D
:1005DC00082FF4D0FCD004E1EAD0F9D08991805DE9
:1005EC0004E1E5D0F4D0082FE9D0F1D004E1DFD05C
:1005FC00EED0DF91CF918F91089588278093900052
:10060C0001E0D5D0E4D003E4D9D0E1D002E5D6D0D6
:10061C00DED001E4D3D0DBD003E5D0D0D8D008E4D1
:10062C00CDD0D5D005E4CAD0D2D004E4C7D0CFD039
:10063C0001E2C4D0CCD000ECBAD0C9D000E5BED019
:10064C00C6D00FE4BBD0C3D004E1B1D0C0D008E217
:10065C00B5D0BDD0C0E0D2E08991882F99278A30DF
:10066C0008F403C093958A50FACF805D905D092FF2
:10067C00A5D0ADD0082FA2D0AAD00CE29FD0A7D085
:10068C008991882F99278A3008F403C093958A5052
:10069C00FACF805D905D092F91D099D0082F8ED024
:1006AC0096D00CE28BD093D08991882F99278A30E1
:1006BC0008F403C093958A50FACF805D905D092FA2
:1006CC007DD085D0082F7AD082D009E277D07FD028
:1006DC001FEF18B90E940D040CE169D078D00E946C
:1006EC000D040CE164D073D00E940D040CE15FD0BA
:1006FC006ED0112718B90E940D0408E158D067D0AC
:10070C000E940D0408E153D062D00E940D0408E150
:10071C004ED05DD0DDCF08950F931F932F933F9351
:10072C008F939F93002711272227332788279927F8
:10073C0055273FEE11271430E1F330930B018FE571
:10074C008A95F1F7809109018F708F3051F021E07B
:10075C000027043031F0982F922331F00395220FAB
:10076C00F8CF330F1395E7CF133041F0033049F036
:10077C00802F880F800F810F8F5C0CC081E4800F5D
:10078C0009C0103021F0113021F083E203C08AE25D
:10079C0001C080E3909109019F709F30D9F7582FC9
:1007AC009F918F913F912F911F910F91089501BBB4
:1007BC001FD0169A1DD016981BD0089501BB179AFE
:1007CC0017D0169A15D0169813D0179808950F9322
:1007DC00002700BB01BB159A0BD0169A09D00FB19C
:1007EC00169807FDF9CF15980FEF00BB0F910895E0
:1007FC008F939F939FE08CE90197F1F79F918F91D5
:10080C000895F6DFF5DFF4DFF3DFF2DF08950F93E1
:0C081C0000E5F7DF0150E9F70F910895A7
:00000001FF
