:020000020000FC
:040000000C948600D6
:04000C000C94300020
:10005C000C9444008F939F938FB78F93DF93CF9320
:10006C00C2E0D2E089919881019698838A93CF91CE
:10007C00DF918F918FBF9F918F9118958F939F9345
:10008C008FB78F93DF93CF93C0E0D2E089919881A3
:10009C0001968E3A61F5913051F5E2E0F2E08191F2
:1000AC009081882F9927823008F403C09395825051
:1000BC00FACF892F99278A3008F403C093958A5078
:1000CC00FACF805D905D01E060D06FD0092F64D0D5
:1000DC006CD0082F61D069D0C0E0D2E0882789931A
:1000EC008883C2E0D2E088278993888302C09883F2
:1000FC008A93CF91DF918F918FBF9F918F9118959C
:10010C00F89480E2809369008DB384608DBB88275E
:10011C0084BD83E085BD81E080936E008FEF8DBF41
:10012C0081E28EBF78940FEF00BB01B9002701BBB1
:10013C0002B908E32AD039D052D008E326D035D002
:10014C0045D008E322D031D008E31FD02ED008E0F0
:10015C001CD02BD001E019D028D006E016D025D029
:10016C000EE013D022D00C94BB0088E08DB98AE449
:10017C008093980080E08093990081E080939100B7
:10018C0081E88093900000C0FFCF01BB1FD0169A6E
:10019C001DD016981BD0089501BB179A17D0169A2C
:1001AC0015D0169813D0179808950F93002700BBFD
:1001BC0001BB159A0BD0169A09D00FB1169807FDF2
:1001CC00F9CF15980FEF00BB0F9108958F939F9364
:1001DC009FE08CE90197F1F79F918F910895F6DFDD
:0A01EC00F5DFF4DFF3DFF2DF089522
:00000001FF
