:020000020000FC
:040000000C943F001D
:10005C000C9430005FB75F931196A83E31F4B13029
:10006C0021F4409548B9AA27BB2700C05F915FBF18
:10007C00189540EF40930A014FEF47B948B9C0E0DB
:10008C00D2E0AA27BB273FEE11271430E1F33093BF
:10009C000B0141E04A95F1F7409109014F704F3047
:1000AC0059F021E00027043039F0542F522341F04D
:1000BC000395220F0C945900330F13950C944B009D
:1000CC00133049F0033059F0402F440F400F410FCB
:1000DC004F5F0C94800041E4400F0C948000103072
:1000EC0029F0113031F043E20C9480004AE20C9478
:1000FC0080004427842F833249F0409109014F70CE
:10010C004F30D9F7899388B90C94490000271127EF
:10011C002227662777275A915A3261F1052F5A9177
:10012C005A3239F0152F5A915A3219F0252F5A910B
:10013C0001F044E6429F602D4AE0419F600D600F44
:10014C000027112722275A91052FC03031F05A91E0
:10015C00152FC03011F05A91252F44E6429F702D77
:10016C004AE0419F700D700F769F012D003011F405
:10017C0008B80BC0442744BD43E045BD41E0409363
:0C018C006E0078944FEF48B9FFCFFFCF12
:00000001FF
