:020000020000FC
:100000000C94060000C00FEF08B93DC00FEF07B910
:1000100002E00093690001E00DBB7894002708B965
:10002000BB27AA27F0E0E8E845915491A417B5074B
:1000300078F499278827F0E0EAE8459154918417ED
:10004000950718F401960000F6CF11960000EACF4C
:100050000FEF08B9BB27AA27F0E0E8E845915491D3
:10006000A417B50778F499278827F0E0EAE84591C6
:1000700054918417950718F401960000F6CF119655
:0C0080000000EACFCBCFFFCF64003305B7
:00000001FF
